S325000000005041523115001590E2091590E2092C15A09C011500150615061C000000040000A8
S3250000002000A09C010103000000000000000600000000000000070000000000000005000067
S3250000004000000000000300000000000000050000000000000006000000000000000200008A
S32500000060000000000009000000000000000100000000000000020000000000000007000067
S32500000080000000000000000000000000000900000000000000030000000000000006000048
S325000000A000000000000000000000000000060000000000000002000000000000000600002C
S325000000C0000000000001000000000000000800000000000000070000000000000009000001
S325000000E00000000000020000000000000000000000000000000200000000000000030000F3
S325000001000000000000070000000000000005000000000000000900000000000000020000C2
S3250000012000000000000200000000000000080000000000000009000000000000000700009F
S3250000014000000000000300000000000000060000000000000001000000000000000200008D
S32500000160000000000009000000000000000300000000000000010000000000000009000063
S32500000180000000000004000000000000000700000000000000080000000000000004000042
S325000001A000000000000500000000000000000000000000000003000000000000000600002B
S325000001C000000000000100000000000000000000000000000006000000000000000300000F
S325000001E00000000000020000000000000000000000000000000600000000000000010000F0
S325000002000000000000050000000000000005000000000000000400000000000000070000C3
S3250000022000000000000600000000000000050000000000000006000000000000000900009E
S32500000240000000000003000000000000000700000000000000040000000000000005000085
S32500000260000000000002000000000000000500000000000000040000000000000007000066
S3250000028000000000000400000000000000040000000000000003000000000000000000004D
S325000002A000000000000700000000000000080000000000000006000000000000000800001B
S325000002C0000000000008000000000000000400000000000000030000000000000001000008
S325000002E00000000000040000000000000009000000000000000200000000000000000000E9
S325000003000000000000060000000000000008000000000000000900000000000000020000BE
S3250000032000000000000600000000000000060000000000000004000000000000000900009E
S32500000340000000000005000000000000000000000000000000040000000000000008000086
S32500000360000000000007000000000000000100000000000000070000000000000002000066
S32500000380000000000007000000000000000200000000000000020000000000000006000046
S325000003A000000000000100000000000000000000000000000006000000000000000100002F
S325000003C00000000000050000000000000009000000000000000400000000000000090000FC
S325000003E00000000000000000000000000009000000000000000100000000000000070000E6
S325000004000000000000070000000000000001000000000000000100000000000000050000C8
S32500000420000000000009000000000000000700000000000000070000000000000006000099
S32500000440000000000007000000000000000300000000000000060000000000000005000081
S32500000460000000000006000000000000000300000000000000090000000000000004000060
S32500000480000000000008000000000000000100000000000000020000000000000009000042
S325000004A0000000000003000000000000000900000000000000000000000000000008000022
S325000004C0000000000008000000000000000500000000000000000000000000000009000000
S325000004E00000000000060000000000000003000000000000000800000000000000050000E0
S325000005000000000000060000000000000001000000000000000100000000000000050000C8
S32500000520000000000009000000000000000800000000000000040000000000000008000098
S32500000540000000000001000000000000000000000000000000030000000000000000000091
S32500000560000000000004000000000000000400000000000000040000000000000004000065
S32500000580000000000007000000000000000600000000000000030000000000000001000044
S325000005A000000000000700000000000000050000000000000009000000000000000600001A
S325000005C0000000000002000000000000000100000000000000070000000000000008000003
S325000005E00000000000050000000000000007000000000000000400000000000000010000E4
S325000006000000000000080000000000000005000000000000000900000000000000070000B7
S3250000062000000000000500000000000000030000000000000008000000000000000800009C
S3250000064000000000000300000000000000010000000000000008000000000000000900007F
S32500000660000000000006000000000000000400000000000000030000000000000003000064
S32500000680000000000003000000000000000800000000000000060000000000000000000043
S325000006A0000000000004000000000000000800000000000000080000000000000008000018
S325000006C00000000000090000000000000007000000000000000700000000000000060000F7
S325000006E00000000000040000000000000003000000000000000000000000000000030000EA
S325000007000000000000000000000000000009000000000000000200000000000000050000C3
S325000007200000000000040000000000000000000000000000000500000000000000090000A1
S3250000074000000000000400000000000000060000000000000009000000000000000200007E
S3250000076000000000000200000000000000040000000000000007000000000000000700005F
S32500000780000000000005000000000000000400000000000000080000000000000001000041
S325000007A000000000000200000000000000080000000000000009000000000000000300001D
S325000007C0000000000006000000000000000800000000000000000000000000000002000003
S325000007E00000000000010000000000000000000000000000000500000000000000010000EC
S325000008000000000000010000000000000000000000000000000800000000000000050000C4
S325000008200000000000000000000000000006000000000000000400000000000000060000A2
S3250000084000000000000200000000000000050000000000000008000000000000000600007D
S3250000086000000000000200000000000000080000000000000004000000000000000700005D
S32500000880000000000002000000000000000400000000000000000000000000000006000046
S325000008A000000000000200000000000000090000000000000009000000000000000000001E
S325000008C0000000000008000000000000000100000000000000030000000000000001000005
S325000008E00000000000010000000000000000000000000000000300000000000000040000EA
S325000009000000000000000000000000000003000000000000000900000000000000010000C4
S32500000920000000000009000000000000000600000000000000090000000000000003000096
S32500000940000000000003000000000000000800000000000000000000000000000005000081
S32500000960000000000006000000000000000600000000000000040000000000000000000061
S32500000980000000000000000000000000000400000000000000060000000000000002000045
S325000009A0000000000006000000000000000700000000000000050000000000000006000019
S325000009C00000000000090000000000000008000000000000000700000000000000020000F7
S325000009E00000000000080000000000000002000000000000000900000000000000090000D5
S32500000A000000000000060000000000000000000000000000000200000000000000070000C1
S32500000A200000000000060000000000000001000000000000000300000000000000020000A4
S32500000A40000000000001000000000000000500000000000000090000000000000009000078
S32500000A60000000000001000000000000000400000000000000090000000000000001000061
S32500000A8000000000000000000000000000070000000000000005000000000000000800003C
S32500000AA000000000000700000000000000000000000000000004000000000000000800001D
S32500000AC0000000000000000000000000000400000000000000020000000000000009000001
S32500000AE00000000000060000000000000001000000000000000000000000000000040000E5
S32500000B000000000000020000000000000002000000000000000200000000000000000000C9
S32500000B2000000000000500000000000000050000000000000002000000000000000900009A
S32500000B40000000000000000000000000000200000000000000080000000000000003000082
S32500000B60000000000008000000000000000000000000000000040000000000000000000063
S32500000B80000000000009000000000000000100000000000000090000000000000006000036
S32500000BA0000000000002000000000000000500000000000000040000000000000004000020
S32500000BC00000000000090000000000000009000000000000000300000000000000060000F4
S32500000BE00000000000000000000000000005000000000000000000000000000000020000E8
S32500000C000000000000090000000000000004000000000000000300000000000000050000B9
S32500000C2000000000000100000000000000070000000000000004000000000000000300009F
S32500000C4000000000000100000000000000040000000000000006000000000000000900007A
S32500000C60000000000004000000000000000200000000000000020000000000000006000060
S32500000C8000000000000400000000000000010000000000000002000000000000000800003F
S32500000CA0000000000008000000000000000900000000000000020000000000000008000013
S32500000CC00000000000080000000000000008000000000000000600000000000000080000F0
S32500000CE00000000000030000000000000008000000000000000300000000000000030000DD
S32500000D000000000000030000000000000008000000000000000000000000000000040000BE
S32500000D2000000000000700000000000000060000000000000008000000000000000900008F
S32500000D40000000000000000000000000000600000000000000080000000000000007000078
S32500000D6000000000000900000000000000000000000000000003000000000000000300005E
S32500000D8000000000000300000000000000070000000000000003000000000000000200003E
S32500000DA000000000000600000000000000050000000000000002000000000000000600001A
S32500000DC00000000000050000000000000008000000000000000700000000000000090000F0
S32500000DE00000000000060000000000000000000000000000000400000000000000010000E2
S32500000E000000000000000000000000000004000000000000000800000000000000070000B9
S32500000E2000000000000000000000000000080000000000000006000000000000000200009C
S32500000E40000000000004000000000000000700000000000000090000000000000003000075
S32500000E60000000000009000000000000000200000000000000080000000000000003000056
S32500000E8000000000000000000000000000010000000000000007000000000000000800003C
S32500000EA0000000000009000000000000000100000000000000050000000000000004000019
S32500000EC00000000000090000000000000002000000000000000500000000000000070000F5
S32500000EE00000000000040000000000000009000000000000000900000000000000040000D2
S32500000F000000000000050000000000000009000000000000000300000000000000050000B5
S32500000F2000000000000700000000000000000000000000000008000000000000000100009B
S32500000F4000000000000900000000000000090000000000000007000000000000000800006A
S32500000F6000000000000200000000000000050000000000000003000000000000000400005D
S32500000F80000000000009000000000000000000000000000000020000000000000000000040
S32500000FA0000000000001000000000000000900000000000000060000000000000002000019
S32500000FC0000000000001000000000000000200000000000000000000000000000007000001
S32500000FE00000000000030000000000000001000000000000000100000000000000090000DD
S325000010000000000000000000000000000005000000000000000600000000000000070000B8
S32500001020000000000007000000000000000400000000000000000000000000000006000099
S32500001040000000000004000000000000000700000000000000040000000000000008000073
S32500001060000000000005000000000000000800000000000000020000000000000006000055
S3250000108000000000000000000000000000060000000000000006000000000000000400003A
S325000010A0000000000006000000000000000200000000000000080000000000000009000011
S325000010C00000000000060000000000000000000000000000000700000000000000000000FD
S325000010E00000000000010000000000000000000000000000000100000000000000030000E5
S325000011000000000000070000000000000007000000000000000200000000000000060000B3
S3250000112000000000000400000000000000050000000000000002000000000000000000009E
S32500001140000000000002000000000000000900000000000000000000000000000009000075
S32500001160000000000009000000000000000400000000000000050000000000000001000056
S32500001180000000000000000000000000000300000000000000070000000000000008000037
S325000011A0000000000008000000000000000600000000000000000000000000000004000017
S325000011C00000000000060000000000000007000000000000000600000000000000000000F6
S325000011E00000000000090000000000000007000000000000000500000000000000090000CB
S325000012000000000000070000000000000008000000000000000500000000000000030000B1
S32500001220000000000003000000000000000800000000000000030000000000000007000093
S3250000124000000000000900000000000000030000000000000007000000000000000800006D
S32500001260000000000007000000000000000400000000000000010000000000000009000053
S3250000128000000000000000000000000000090000000000000008000000000000000800002F
S325000012A0000000000005000000000000000800000000000000040000000000000003000014
S325000012C00000000000070000000000000001000000000000000300000000000000080000F5
S325000012E00000000000000000000000000009000000000000000700000000000000090000CF
S325000013000000000000090000000000000003000000000000000200000000000000040000B5
S3250000132000000000000300000000000000070000000000000001000000000000000200009A
S32500001340000000000002000000000000000000000000000000020000000000000001000082
S32500001360000000000007000000000000000500000000000000010000000000000007000053
S3250000138000000000000400000000000000010000000000000007000000000000000100003A
S325000013A000000000000100000000000000010000000000000007000000000000000000001E
S325000013C00000000000040000000000000000000000000000000800000000000000050000F6
S325000013E00000000000010000000000000006000000000000000600000000000000020000D8
S325000014000000000000010000000000000009000000000000000600000000000000040000B2
S32500001420000000000008000000000000000000000000000000080000000000000001000095
S32500001440000000000000000000000000000200000000000000020000000000000009000079
S32500001460000000000007000000000000000500000000000000060000000000000004000050
S3250000148000000000000600000000000000030000000000000007000000000000000900002D
S325000014A0000000000007000000000000000400000000000000090000000000000001000011
S325000014C00000000000070000000000000000000000000000000600000000000000000000F9
S325000014E00000000000080000000000000005000000000000000300000000000000090000CD
S325000015000000000000040000000000000001000000000000000500000000000000040000B7
S32500001520000000000001000000000000000500000000000000050000000000000004000096
S32500001540000000000009000000000000000800000000000000030000000000000008000069
S3250000156000000000000500000000000000020000000000000002000000000000000200005A
S32500001580000000000007000000000000000000000000000000030000000000000004000037
S325000015A0000000000006000000000000000300000000000000060000000000000003000013
S325000015C00000000000030000000000000004000000000000000400000000000000030000F7
S325000015E00000000000090000000000000007000000000000000200000000000000050000CE
S325000016000000000000080000000000000009000000000000000000000000000000020000B1
S3250000162000000000000400000000000000070000000000000006000000000000000500008E
S32500001640000000000007000000000000000100000000000000030000000000000003000076
S32500001660000000000003000000000000000800000000000000050000000000000001000053
S3250000168000000000000000000000000000080000000000000007000000000000000600002F
S325000016A0000000000003000000000000000500000000000000000000000000000008000014
S325000016C00000000000000000000000000004000000000000000100000000000000010000FE
S325000016E00000000000030000000000000005000000000000000900000000000000030000D0
S325000017000000000000040000000000000001000000000000000500000000000000000000B9
S3250000172000000000000800000000000000030000000000000005000000000000000600008D
S3250000174000000000000500000000000000090000000000000009000000000000000000006C
S3250000176000000000000700000000000000060000000000000003000000000000000700004C
S32500001780000000000006000000000000000100000000000000050000000000000000000037
S325000017A0000000000006000000000000000500000000000000000000000000000008000010
S325000017C00000000000010000000000000002000000000000000200000000000000060000F8
S325000017E00000000000090000000000000001000000000000000000000000000000040000D5
S325000018000000000000020000000000000007000000000000000400000000000000000000B5
S32500001820000000000003000000000000000200000000000000080000000000000000000095
S32500001840000000000003000000000000000700000000000000000000000000000000000078
S32500001860000000000003000000000000000400000000000000090000000000000002000050
S32500001880000000000007000000000000000400000000000000020000000000000005000030
S325000018A0000000000002000000000000000400000000000000040000000000000003000015
S325000018C00000000000080000000000000006000000000000000000000000000000080000EC
S325000018E00000000000090000000000000002000000000000000200000000000000030000D2
S325000019000000000000010000000000000008000000000000000300000000000000040000B1
S32500001920000000000002000000000000000200000000000000040000000000000005000094
S3250000194000000000000100000000000000070000000000000005000000000000000700006D
S32500001960000000000001000000000000000600000000000000090000000000000008000049
S32500001980000000000001000000000000000300000000000000030000000000000003000037
S325000019A0000000000007000000000000000900000000000000080000000000000006000003
S325000019C00000000000070000000000000000000000000000000400000000000000080000EE
S325000019E00000000000040000000000000008000000000000000100000000000000060000CE
S32500001A000000000000080000000000000005000000000000000200000000000000010000B0
S32500001A20000000000009000000000000000900000000000000060000000000000000000088
S32500001A40000000000006000000000000000400000000000000090000000000000009000064
S32500001A6000000000000000000000000000080000000000000009000000000000000300004C
S32500001A8000000000000100000000000000040000000000000008000000000000000900002A
S32500001AA0000000000006000000000000000700000000000000070000000000000003000009
S32500001AC00000000000070000000000000001000000000000000200000000000000020000F4
S32500001AE00000000000010000000000000005000000000000000000000000000000090000D1
S32500001B000000000000000000000000000004000000000000000000000000000000010000BA
S32500001B20000000000003000000000000000700000000000000040000000000000001000090
S32500001B40000000000001000000000000000300000000000000000000000000000003000078
S32500001B60000000000002000000000000000100000000000000070000000000000005000050
S32500001B8000000000000600000000000000050000000000000004000000000000000200002E
S32500001BA0000000000002000000000000000100000000000000070000000000000002000013
S32500001BC00000000000040000000000000001000000000000000600000000000000050000EF
S32500001BE00000000000070000000000000008000000000000000500000000000000090000C2
S32500001C000000000000020000000000000007000000000000000300000000000000060000AC
S32500001C20000000000004000000000000000700000000000000090000000000000007000083
S32500001C40000000000002000000000000000200000000000000010000000000000006000073
S32500001C60000000000003000000000000000000000000000000020000000000000001000058
S32500001C8000000000000500000000000000060000000000000005000000000000000000002E
S32500001CA0000000000000000000000000000300000000000000040000000000000006000011
S32500001CC00000000000060000000000000000000000000000000200000000000000050000F1
S32500001CE00000000000080000000000000009000000000000000500000000000000000000C8
S32500001D000000000000060000000000000000000000000000000800000000000000030000AC
S32500001D2000000000000700000000000000080000000000000002000000000000000100008B
S32500001D4000000000000000000000000000050000000000000008000000000000000500006B
S32500001D6000000000000500000000000000000000000000000007000000000000000300004E
S32500001D80000000000008000000000000000200000000000000030000000000000000000030
S32500001DA0000000000007000000000000000700000000000000070000000000000006000002
S32500001DC00000000000090000000000000001000000000000000100000000000000090000E9
S32500001DE00000000000000000000000000008000000000000000900000000000000080000C4
S32500001E000000000000080000000000000000000000000000000300000000000000070000AA
S32500001E2000000000000000000000000000060000000000000009000000000000000200008B
S32500001E40000000000001000000000000000700000000000000070000000000000009000064
S32500001E60000000000007000000000000000600000000000000020000000000000007000046
S32500001E80000000000001000000000000000500000000000000080000000000000008000026
S32500001EA0000000000004000000000000000500000000000000060000000000000005000008
S32500001EC00000000000060000000000000008000000000000000400000000000000080000E2
S32500001EE00000000000080000000000000003000000000000000800000000000000070000C2
S32500001F000000000000050000000000000002000000000000000400000000000000050000AB
S32500001F2000000000000000000000000000050000000000000007000000000000000300008C
S32500001F4000000000000200000000000000070000000000000002000000000000000100006F
S32500001F60000000000003000000000000000400000000000000090000000000000004000047
S32500001F80000000000001000000000000000900000000000000050000000000000007000025
S32500001FA0000000000004000000000000000100000000000000020000000000000002000012
S32500001FC00000000000010000000000000006000000000000000200000000000000000000F2
S32500001FE00000000000020000000000000002000000000000000900000000000000070000C7
S325000020000000000000040000000000000003000000000000000500000000000000060000A8
S32500002020000000000001000000000000000400000000000000000000000000000003000092
S32500002040000000000001000000000000000200000000000000070000000000000007000069
S32500002060000000000009000000000000000800000000000000010000000000000000000048
S3250000208000000000000700000000000000060000000000000000000000000000000100002C
S325000020A0000000000000000000000000000200000000000000050000000000000001000012
S325000020C00000000000090000000000000007000000000000000100000000000000030000E6
S325000020E00000000000010000000000000002000000000000000000000000000000060000D1
S3250000210000000000000800000000000000070000000000000004000000000000000900009D
S3250000212000000000000200000000000000040000000000000004000000000000000500008A
S32500002140000000000009000000000000000100000000000000020000000000000008000065
S32500002160000000000009000000000000000600000000000000000000000000000006000044
S32500002180000000000004000000000000000000000000000000090000000000000004000028
S325000021A0000000000005000000000000000400000000000000060000000000000006000004
S325000021C00000000000030000000000000009000000000000000900000000000000050000DF
S325000021E00000000000020000000000000001000000000000000300000000000000000000D3
S325000022000000000000090000000000000009000000000000000100000000000000030000A2
S32500002220000000000004000000000000000500000000000000080000000000000005000082
S32500002240000000000007000000000000000300000000000000030000000000000008000063
S32500002260000000000009000000000000000500000000000000050000000000000003000042
S32500002280000000000008000000000000000600000000000000000000000000000003000027
S325000022A0000000000003000000000000000600000000000000010000000000000008000006
S325000022C00000000000070000000000000000000000000000000500000000000000010000EB
S325000022E00000000000010000000000000000000000000000000300000000000000000000D4
S325000023000000000000000000000000000004000000000000000500000000000000040000AA
S3250000232000000000000200000000000000040000000000000009000000000000000900007F
S32500002340000000000009000000000000000400000000000000090000000000000008000059
S32500002360000000000001000000000000000600000000000000030000000000000009000044
S32500002380000000000003000000000000000300000000000000040000000000000006000027
S325000023A000000000000100000000000000050000000000000006000000000000000100000A
S325000023C00000000000070000000000000002000000000000000200000000000000090000E3
S325000023E00000000000020000000000000008000000000000000100000000000000020000CA
S3250000240000000000000400000000000000070000000000000008000000000000000600009D
S32500002420000000000003000000000000000700000000000000070000000000000002000083
S32500002440000000000003000000000000000700000000000000020000000000000005000065
S3250000246000000000000300000000000000070000000000000006000000000000000800003E
S32500002480000000000001000000000000000300000000000000060000000000000004000028
S325000024A0000000000000000000000000000300000000000000050000000000000008000006
S325000024C00000000000050000000000000000000000000000000900000000000000090000DF
S325000024E00000000000080000000000000000000000000000000200000000000000040000C8
S325000025000000000000090000000000000000000000000000000100000000000000020000A9
S3250000252000000000000000000000000000000000000000000006000000000000000300008C
S32500002540000000000009000000000000000000000000000000080000000000000003000061
S32500002560000000000008000000000000000700000000000000030000000000000001000042
S32500002580000000000000000000000000000000000000000000050000000000000000000030
S325000025A0000000000003000000000000000100000000000000080000000000000000000009
S325000025C00000000000010000000000000007000000000000000900000000000000010000E3
S325000025E00000000000000000000000000003000000000000000500000000000000090000C4
S3250000260000000000000400000000000000080000000000000004000000000000000600009E
S32500002620000000000009000000000000000200000000000000090000000000000000000080
S3250000264000000000000300000000000000000000000000000003000000000000000300006B
S32500002660000000000007000000000000000900000000000000040000000000000009000037
S3250000268000000000000900000000000000010000000000000009000000000000000400001D
S325000026A0000000000002000000000000000000000000000000060000000000000005000007
S325000026C00000000000090000000000000005000000000000000600000000000000010000DF
S325000026E00000000000010000000000000004000000000000000300000000000000070000C5
S325000027000000000000020000000000000007000000000000000300000000000000030000A4
S32500002720000000000009000000000000000200000000000000040000000000000004000080
S3250000274000000000000400000000000000090000000000000009000000000000000300005A
S3250000276000000000000800000000000000030000000000000002000000000000000900003D
S3250000278000000000000500000000000000040000000000000003000000000000000900001E
S325000027A00000000000040000000000000009000000000000000500000000000000050000FC
S325000027C00000000000070000000000000003000000000000000900000000000000000000E0
S325000027E00000000000070000000000000002000000000000000700000000000000020000C1
S325000028000000000000090000000000000000000000000000000500000000000000000000A4
S3250000282000000000000400000000000000010000000000000007000000000000000900007D
S32500002840000000000003000000000000000600000000000000020000000000000001000066
S3250000286000000000000200000000000000050000000000000003000000000000000900003F
S3250000288000000000000100000000000000080000000000000008000000000000000700001A
S325000028A0000000000000000000000000000500000000000000020000000000000007000004
S325000028C00000000000090000000000000001000000000000000900000000000000060000D9
S325000028E00000000000030000000000000006000000000000000800000000000000040000BD
S3250000290000000000000600000000000000060000000000000007000000000000000200009C
S32500002920000000000007000000000000000400000000000000010000000000000000000085
S32500002940000000000000000000000000000600000000000000040000000000000004000063
S32500002960000000000003000000000000000700000000000000030000000000000004000040
S32500002980000000000007000000000000000200000000000000010000000000000007000020
S325000029A00000000000090000000000000005000000000000000600000000000000080000F5
S325000029C00000000000090000000000000005000000000000000500000000000000020000DC
S325000029E00000000000010000000000000005000000000000000900000000000000090000B9
S32500002A000000000000010000000000000006000000000000000200000000000000010000A6
S32500002A20000000000000000000000000000500000000000000030000000000000002000086
S32500002A40000000000001000000000000000900000000000000070000000000000006000059
S32500002A60000000000008000000000000000200000000000000000000000000000006000040
S32500002A80000000000004000000000000000300000000000000030000000000000006000020
S32500002AA00000000000090000000000000000000000000000000400000000000000080000FB
S32500002AC00000000000050000000000000001000000000000000200000000000000090000DF
S32500002AE00000000000070000000000000003000000000000000800000000000000000000BE
S32500002B000000000000090000000000000002000000000000000300000000000000010000A0
S32500002B2000000000000800000000000000070000000000000004000000000000000100007B
S32500002B40000000000006000000000000000300000000000000080000000000000005000059
S32500002B60000000000005000000000000000000000000000000010000000000000002000047
S32500002B80000000000006000000000000000400000000000000080000000000000005000018
S32500002BA0000000000006000000000000000200000000000000050000000000000002000000
S32500002BC00000000000060000000000000009000000000000000100000000000000030000DC
S32500002BE00000000000030000000000000001000000000000000500000000000000020000C4
S32500002C00000000000006000000000000000900000000000000040000000000000004000097
S32500002C2000000000000600000000000000000000000000000007000000000000000400007D
S32500002C4000000000000300000000000000070000000000000009000000000000000000005B
S32500002C60000000000000000000000000000200000000000000020000000000000006000044
S32500002C8000000000000900000000000000000000000000000003000000000000000500001D
S32500002CA00000000000050000000000000008000000000000000700000000000000010000F9
S32500002CC00000000000070000000000000000000000000000000600000000000000000000E1
S32500002CE00000000000040000000000000001000000000000000300000000000000000000C6
S32500002D0000000000000200000000000000090000000000000006000000000000000000009C
S32500002D20000000000009000000000000000300000000000000050000000000000004000078
S32500002D4000000000000300000000000000060000000000000004000000000000000300005D
S32500002D60000000000001000000000000000900000000000000010000000000000000000042
S32500002D80000000000009000000000000000400000000000000050000000000000006000015
S32500002DA00000000000020000000000000005000000000000000900000000000000010000FC
S32500002DC00000000000070000000000000007000000000000000400000000000000010000DA
S32500002DE00000000000010000000000000009000000000000000100000000000000030000BF
S32500002E00000000000008000000000000000700000000000000040000000000000009000090
S32500002E2000000000000300000000000000010000000000000003000000000000000800007D
S32500002E40000000000007000000000000000900000000000000030000000000000008000051
S32500002E60000000000008000000000000000400000000000000000000000000000000000040
S32500002E80000000000008000000000000000600000000000000080000000000000002000014
S32500002EA00000000000030000000000000008000000000000000500000000000000000000FC
S32500002EC00000000000050000000000000009000000000000000200000000000000060000D6
S32500002EE00000000000080000000000000005000000000000000200000000000000080000B5
S32500002F00000000000003000000000000000600000000000000070000000000000008000093
S32500002F20000000000007000000000000000200000000000000060000000000000006000076
S32500002F40000000000002000000000000000900000000000000070000000000000000000059
S32500002F6000000000000300000000000000070000000000000002000000000000000300003C
S32500002F80000000000005000000000000000100000000000000070000000000000008000016
S32500002FA00000000000090000000000000004000000000000000100000000000000060000F7
S32500002FC00000000000040000000000000003000000000000000500000000000000040000DB
S32500002FE00000000000080000000000000007000000000000000300000000000000030000B6
S325000030000000000000050000000000000000000000000000000100000000000000040000A0
S32500003020000000000005000000000000000700000000000000000000000000000007000077
S3250000304000000000000800000000000000090000000000000009000000000000000300004D
S32500003060000000000009000000000000000400000000000000060000000000000004000033
S32500003080000000000005000000000000000500000000000000050000000000000006000015
S325000030A00000000000000000000000000006000000000000000200000000000000060000FC
S325000030C00000000000090000000000000009000000000000000200000000000000090000CD
S325000030E00000000000060000000000000005000000000000000500000000000000030000B7
S32500003100000000000008000000000000000600000000000000070000000000000003000091
S3250000312000000000000600000000000000000000000000000002000000000000000600007B
S32500003140000000000009000000000000000300000000000000000000000000000008000055
S32500003160000000000007000000000000000600000000000000050000000000000002000035
S3250000318000000000000400000000000000000000000000000000000000000000000600001F
S325000031A00000000000080000000000000005000000000000000400000000000000090000EF
S325000031C00000000000040000000000000006000000000000000800000000000000030000D4
S325000031E00000000000020000000000000003000000000000000600000000000000020000BC
S3250000320000000000000200000000000000040000000000000007000000000000000000009B
S32500003220000000000004000000000000000900000000000000060000000000000005000070
S32500003240000000000004000000000000000600000000000000040000000000000002000058
S3250000326000000000000500000000000000010000000000000006000000000000000100003B
S32500003280000000000003000000000000000700000000000000070000000000000001000016
S325000032A00000000000020000000000000001000000000000000000000000000000080000FD
S325000032C00000000000090000000000000000000000000000000100000000000000030000DB
S325000032E00000000000040000000000000008000000000000000500000000000000080000AF
S3250000330000000000000200000000000000020000000000000000000000000000000600009D
S3250000332000000000000300000000000000060000000000000001000000000000000000007D
S32500003340000000000005000000000000000700000000000000040000000000000002000055
S32500003360000000000000000000000000000000000000000000030000000000000003000041
S32500003380000000000009000000000000000000000000000000040000000000000003000017
S325000033A00000000000030000000000000004000000000000000200000000000000040000FA
S325000033C00000000000050000000000000003000000000000000800000000000000010000D6
S325000033E00000000000010000000000000003000000000000000100000000000000050000BD
S32500003400000000000008000000000000000100000000000000030000000000000003000097
S3250000342000000000000900000000000000070000000000000005000000000000000400006D
S3250000344000000000000400000000000000090000000000000006000000000000000700004C
S32500003460000000000002000000000000000100000000000000000000000000000001000042
S3250000348000000000000300000000000000070000000000000007000000000000000600000F
S325000034A00000000000030000000000000009000000000000000100000000000000000000F9
S325000034C00000000000040000000000000001000000000000000100000000000000080000D8
S325000034E00000000000060000000000000004000000000000000300000000000000040000B5
S32500003500000000000007000000000000000700000000000000000000000000000007000090
S32500003520000000000004000000000000000500000000000000030000000000000000000079
S3250000354000000000000700000000000000020000000000000009000000000000000900004A
S32500003560000000000003000000000000000000000000000000020000000000000007000039
S3250000358000000000000900000000000000090000000000000005000000000000000200000C
S325000035A00000000000000000000000000008000000000000000300000000000000050000F5
S325000035C00000000000090000000000000006000000000000000500000000000000060000CB
S325000035E00000000000030000000000000000000000000000000200000000000000000000C0
S3250000360000000000000700000000000000040000000000000007000000000000000300008F
S32500003620000000000000000000000000000100000000000000060000000000000007000076
S32500003640000000000005000000000000000700000000000000080000000000000008000048
S3250000366000000000000900000000000000000000000000000007000000000000000800002C
S32500003680000000000000000000000000000300000000000000010000000000000000000020
S325000036A00000000000030000000000000006000000000000000700000000000000030000F1
S325000036C00000000000020000000000000002000000000000000100000000000000050000DA
S325000036E00000000000030000000000000003000000000000000800000000000000020000B4
S3250000370000000000000800000000000000050000000000000008000000000000000000008E
S32500003720000000000008000000000000000600000000000000090000000000000003000069
S32500003740000000000003000000000000000700000000000000040000000000000003000052
S3250000376000000000000700000000000000010000000000000003000000000000000900002F
S32500003780000000000006000000000000000400000000000000020000000000000000000017
S325000037A00000000000020000000000000009000000000000000500000000000000070000EC
S325000037C00000000000040000000000000006000000000000000400000000000000090000CC
S325000037E00000000000010000000000000002000000000000000300000000000000010000BC
S3250000380000000000000800000000000000010000000000000003000000000000000800008E
S3250000382000000000000900000000000000020000000000000004000000000000000500006E
S32500003840000000000001000000000000000000000000000000000000000000000001000060
S3250000386000000000000300000000000000030000000000000000000000000000000000003C
S3250000388000000000000000000000000000020000000000000002000000000000000200001C
S325000038A00000000000040000000000000007000000000000000900000000000000080000E6
S325000038C00000000000050000000000000004000000000000000700000000000000080000CA
S325000038E00000000000060000000000000000000000000000000000000000000000060000B6
S3250000390000000000000400000000000000030000000000000007000000000000000500008E
S3250000392000000000000800000000000000010000000000000000000000000000000900006F
S32500003940000000000003000000000000000000000000000000020000000000000006000056
S3250000396000000000000400000000000000030000000000000008000000000000000600002C
S32500003980000000000007000000000000000000000000000000080000000000000001000011
S325000039A00000000000090000000000000008000000000000000100000000000000060000E9
S325000039C00000000000040000000000000008000000000000000500000000000000000000D0
S325000039E00000000000010000000000000005000000000000000900000000000000070000AB
S32500003A00000000000000000000000000000600000000000000020000000000000008000090
S32500003A20000000000009000000000000000500000000000000000000000000000002000070
S32500003A4000000000000700000000000000020000000000000008000000000000000100004E
S32500003A60000000000007000000000000000700000000000000090000000000000007000022
S32500003A800000000000090000000000000008000000000000000800000000000000090000FE
S32500003AA00000000000080000000000000000000000000000000500000000000000020000F1
S32500003AC00000000000000000000000000002000000000000000400000000000000030000D7
S32500003AE00000000000070000000000000003000000000000000000000000000000000000B6
S32500003B00000000000001000000000000000500000000000000080000000000000000000091
S32500003B20000000000000000000000000000000000000000000040000000000000007000074
S32500003B40000000000005000000000000000300000000000000010000000000000004000052
S32500003B60000000000002000000000000000000000000000000010000000000000003000039
S32500003B80000000000000000000000000000000000000000000040000000000000008000013
S32500003BA00000000000020000000000000002000000000000000000000000000000020000F9
S32500003BC00000000000040000000000000005000000000000000800000000000000040000CA
S32500003BE00000000000000000000000000008000000000000000400000000000000020000B1
S32500003C0000000000000500000000000000040000000000000002000000000000000700008C
S32500003C2000000000000500000000000000070000000000000005000000000000000200006B
S32500003C40000000000002000000000000000800000000000000060000000000000006000048
S32500003C60000000000000000000000000000000000000000000090000000000000001000034
S32500003C80000000000002000000000000000600000000000000090000000000000004000009
S32500003CA00000000000080000000000000002000000000000000800000000000000020000EA
S32500003CC00000000000070000000000000008000000000000000600000000000000070000C2
S32500003CE00000000000070000000000000000000000000000000900000000000000040000AA
S32500003D00000000000005000000000000000400000000000000020000000000000002000090
S32500003D20000000000003000000000000000900000000000000060000000000000005000066
S32500003D40000000000007000000000000000400000000000000030000000000000009000046
S32500003D6000000000000400000000000000040000000000000000000000000000000600002F
S32500003D80000000000000000000000000000200000000000000020000000000000008000011
S32500003DA00000000000040000000000000003000000000000000100000000000000010000F4
S32500003DC00000000000010000000000000009000000000000000000000000000000000000D3
S32500003DE00000000000000000000000000002000000000000000500000000000000070000AF
S32500003E00000000000006000000000000000900000000000000010000000000000009000083
S32500003E20000000000008000000000000000700000000000000060000000000000005000062
S32500003E4000000000000100000000000000010000000000000004000000000000000800004E
S32500003E60000000000005000000000000000700000000000000060000000000000006000024
S32500003E8000000000000900000000000000010000000000000004000000000000000300000B
S32500003EA00000000000060000000000000007000000000000000600000000000000090000E0
S32500003EC00000000000070000000000000006000000000000000000000000000000090000C6
S32500003EE00000000000000000000000000007000000000000000600000000000000060000A9
S32500003F0000000000000800000000000000070000000000000007000000000000000600007F
S32500003F20000000000006000000000000000500000000000000030000000000000007000066
S32500003F40000000000006000000000000000900000000000000070000000000000002000043
S32500003F6000000000000600000000000000040000000000000000000000000000000700002A
S32500003F80000000000005000000000000000400000000000000000000000000000001000011
S32500003FA00000000000020000000000000008000000000000000000000000000000010000F0
S32500003FC00000000000050000000000000002000000000000000000000000000000070000CD
S32500003FE00000000000010000000000000006000000000000000400000000000000090000A7
S3250000400000000000000500000000000000030000000000000005000000000000000100008C
S32500004020000000000001000000000000000000000000000000000000000000000007000072
S3250000404000000000000000000000000000080000000000000001000000000000000600004B
S32500004060000000000004000000000000000100000000000000040000000000000009000028
S32500004080000000000008000000000000000600000000000000020000000000000002000008
S325000040A00000000000050000000000000002000000000000000300000000000000020000EE
S325000040C00000000000070000000000000003000000000000000900000000000000000000C7
S325000040E00000000000010000000000000005000000000000000000000000000000060000AE
S3250000410000000000000900000000000000070000000000000009000000000000000200007E
S32500004120000000000008000000000000000900000000000000090000000000000008000057
S32500004140000000000009000000000000000300000000000000060000000000000003000044
S3250000416000000000000600000000000000000000000000000004000000000000000400002B
S32500004180000000000009000000000000000600000000000000060000000000000004000000
S325000041A00000000000010000000000000009000000000000000800000000000000000000E7
S325000041C00000000000040000000000000009000000000000000000000000000000050000C7
S325000041E00000000000050000000000000000000000000000000100000000000000060000AD
S32500004200000000000000000000000000000200000000000000080000000000000008000086
S32500004220000000000004000000000000000900000000000000080000000000000003000060
S32500004240000000000004000000000000000400000000000000090000000000000001000046
S3250000426000000000000700000000000000050000000000000007000000000000000600001F
S3250000428000000000000200000000000000040000000000000002000000000000000500000B
S325000042A00000000000050000000000000000000000000000000500000000000000020000EC
S325000042C00000000000090000000000000007000000000000000700000000000000060000BB
S325000042E00000000000080000000000000001000000000000000200000000000000000000AD
S32500004300000000000003000000000000000200000000000000080000000000000007000083
S32500004320000000000004000000000000000600000000000000030000000000000008000062
S32500004340000000000000000000000000000400000000000000090000000000000007000043
S32500004360000000000009000000000000000700000000000000050000000000000001000021
S32500004380000000000003000000000000000700000000000000080000000000000000000005
S325000043A00000000000090000000000000005000000000000000200000000000000010000E6
S325000043C00000000000030000000000000002000000000000000700000000000000030000C8
S325000043E00000000000030000000000000002000000000000000300000000000000080000A7
S32500004400000000000006000000000000000100000000000000060000000000000000000089
S32500004420000000000009000000000000000100000000000000090000000000000001000062
S32500004440000000000005000000000000000000000000000000090000000000000004000044
S3250000446000000000000900000000000000060000000000000008000000000000000200001D
S32500004480000000000004000000000000000600000000000000050000000000000003000004
S325000044A00000000000040000000000000007000000000000000400000000000000070000E0
S325000044C00000000000010000000000000004000000000000000000000000000000040000CD
S325000044E00000000000080000000000000003000000000000000300000000000000040000A4
S32500004500000000000006000000000000000100000000000000050000000000000005000084
S3250000452000000000000400000000000000060000000000000006000000000000000900005C
S3250000454000000000000600000000000000070000000000000005000000000000000600003D
S3250000456000000000000400000000000000030000000000000000000000000000000000002E
S32500004580000000000002000000000000000500000000000000030000000000000008000003
S325000045A00000000000050000000000000000000000000000000500000000000000060000E5
S325000045C00000000000060000000000000007000000000000000300000000000000040000C1
S325000045E00000000000000000000000000008000000000000000000000000000000080000A5
S32500004600000000000001000000000000000500000000000000030000000000000005000086
S3250000462000000000000100000000000000010000000000000004000000000000000000006E
S32500004640000000000001000000000000000100000000000000080000000000000005000045
S3250000466000000000000700000000000000080000000000000005000000000000000100001F
S32500004680000000000006000000000000000000000000000000090000000000000001000004
S325000046A00000000000020000000000000004000000000000000900000000000000000000E5
S325000046C00000000000010000000000000004000000000000000400000000000000030000C8
S325000046E00000000000020000000000000005000000000000000100000000000000030000A9
S32500004700000000000002000000000000000600000000000000000000000000000006000085
S3250000472000000000000900000000000000060000000000000008000000000000000000005C
S32500004740000000000008000000000000000600000000000000070000000000000005000039
S32500004760000000000004000000000000000400000000000000060000000000000000000025
S325000047800000000000050000000000000005000000000000000300000000000000090000FD
S325000047A00000000000010000000000000005000000000000000000000000000000040000E9
S325000047C00000000000090000000000000006000000000000000700000000000000040000B9
S325000047E00000000000030000000000000000000000000000000900000000000000060000A1
S32500004800000000000006000000000000000000000000000000040000000000000005000083
S3250000482000000000000800000000000000020000000000000008000000000000000600005A
S3250000484000000000000800000000000000050000000000000003000000000000000400003E
S32500004860000000000000000000000000000100000000000000070000000000000007000023
S325000048800000000000080000000000000000000000000000000800000000000000090000F9
S325000048A00000000000070000000000000008000000000000000300000000000000090000D7
S325000048C00000000000070000000000000002000000000000000500000000000000000000C4
S325000048E00000000000020000000000000004000000000000000800000000000000000000A4
S3250000490000000000000600000000000000020000000000000006000000000000000500007E
S3250000492000000000000600000000000000060000000000000003000000000000000400005E
S32500004940000000000001000000000000000700000000000000010000000000000003000045
S3250000496000000000000000000000000000080000000000000002000000000000000900001E
S32500004980000000000000000000000000000100000000000000000000000000000008000008
S325000049A00000000000010000000000000006000000000000000700000000000000080000DB
S325000049C00000000000080000000000000002000000000000000100000000000000030000C3
S325000049E0000000000008000000000000000900000000000000030000000000000005000098
S32500004A00000000000004000000000000000100000000000000020000000000000002000087
S32500004A20000000000007000000000000000700000000000000090000000000000001000058
S32500004A40000000000004000000000000000000000000000000040000000000000007000041
S32500004A60000000000008000000000000000700000000000000060000000000000008000013
S32500004A80000000000000000000000000000800000000000000060000000000000001000001
S32500004AA00000000000040000000000000005000000000000000200000000000000050000E0
S32500004AC00000000000090000000000000003000000000000000800000000000000080000B4
S32500004AE00000000000040000000000000003000000000000000500000000000000000000A4
S32500004B0000000000000500000000000000090000000000000003000000000000000400007A
S32500004B2000000000000600000000000000020000000000000005000000000000000300005F
S32500004B4000000000000200000000000000000000000000000000000000000000000000004D
S32500004B60000000000009000000000000000800000000000000000000000000000009000015
S32500004B800000000000060000000000000007000000000000000200000000000000010000FF
S32500004BA00000000000040000000000000004000000000000000800000000000000040000DB
S32500004BC00000000000090000000000000008000000000000000400000000000000040000B6
S32500004BE0000000000001000000000000000900000000000000060000000000000008000097
S32500004C0000000000000000000000000000090000000000000003000000000000000600007C
S32500004C20000000000003000000000000000800000000000000090000000000000005000055
S32500004C40000000000000000000000000000100000000000000070000000000000001000045
S32500004C60000000000009000000000000000800000000000000020000000000000006000015
S32500004C800000000000070000000000000005000000000000000900000000000000030000F6
S32500004CA00000000000090000000000000009000000000000000700000000000000090000CC
S32500004CC00000000000070000000000000003000000000000000500000000000000000000BF
S32500004CE000000000000400000000000000010000000000000009000000000000000400009C
S32500004D0000000000000100000000000000040000000000000003000000000000000600007F
S32500004D2000000000000400000000000000020000000000000002000000000000000700005E
S32500004D40000000000006000000000000000100000000000000080000000000000005000039
S32500004D60000000000001000000000000000100000000000000030000000000000000000028
S32500004D800000000000060000000000000004000000000000000400000000000000070000F8
S32500004DA00000000000050000000000000003000000000000000800000000000000020000DB
S32500004DC00000000000070000000000000003000000000000000500000000000000030000BB
S32500004DE000000000000700000000000000040000000000000008000000000000000000009A
S32500004E00000000000000000000000000000100000000000000060000000000000004000081
S32500004E2000000000000500000000000000080000000000000003000000000000000100005B
S32500004E4000000000000200000000000000020000000000000009000000000000000500003A
S32500004E6000000000000500000000000000040000000000000006000000000000000300001A
S32500004E80000000000001000000000000000200000000000000000000000000000006000003
S32500004EA00000000000050000000000000001000000000000000900000000000000040000D9
S32500004EC00000000000040000000000000006000000000000000800000000000000010000B9
S32500004EE00000000000000000000000000008000000000000000100000000000000020000A1
S32500004F0000000000000900000000000000080000000000000008000000000000000600006C
S32500004F2000000000000800000000000000020000000000000000000000000000000200005F
S32500004F40000000000004000000000000000900000000000000080000000000000001000035
S32500004F60000000000005000000000000000600000000000000040000000000000006000016
S32500004F800000000000080000000000000006000000000000000300000000000000050000F5
S32500004FA00000000000070000000000000004000000000000000200000000000000040000DA
S32500004FC00000000000000000000000000002000000000000000700000000000000020000C0
S32500004FE00000000000000000000000000001000000000000000600000000000000010000A3
S3250000500000000000000900000000000000040000000000000009000000000000000900006B
S32500005020000000000006000000000000000900000000000000040000000000000002000055
S3250000504000000000000000000000000000020000000000000003000000000000000600003F
S3250000506000000000000800000000000000090000000000000002000000000000000800000F
S325000050800000000000060000000000000007000000000000000300000000000000050000F5
S325000050A00000000000030000000000000005000000000000000900000000000000050000D4
S325000050C00000000000090000000000000007000000000000000900000000000000090000A8
S325000050E00000000000000000000000000005000000000000000200000000000000010000A2
S32500005100000000000000000000000000000200000000000000000000000000000006000081
S32500005120000000000003000000000000000600000000000000090000000000000004000053
S32500005140000000000008000000000000000400000000000000000000000000000008000035
S32500005160000000000004000000000000000400000000000000080000000000000002000017
S325000051800000000000040000000000000002000000000000000700000000000000070000F5
S325000051A00000000000090000000000000009000000000000000300000000000000090000CB
S325000051C00000000000080000000000000004000000000000000000000000000000080000B5
S325000051E000000000000000000000000000050000000000000009000000000000000000009B
S32500005200000000000009000000000000000100000000000000080000000000000002000074
S3250000522000000000000800000000000000070000000000000006000000000000000800004B
S3250000524000000000000400000000000000080000000000000009000000000000000800002B
S32500005260000000000003000000000000000700000000000000000000000000000007000017
S325000052800000000000010000000000000009000000000000000600000000000000030000F5
S325000052A00000000000000000000000000001000000000000000400000000000000080000DB
S325000052C00000000000060000000000000006000000000000000600000000000000060000B0
S325000052E0000000000001000000000000000700000000000000080000000000000002000096
S3250000530000000000000900000000000000060000000000000005000000000000000900006A
S32500005320000000000004000000000000000300000000000000070000000000000008000051
S3250000534000000000000200000000000000080000000000000008000000000000000700002E
S32500005360000000000006000000000000000000000000000000040000000000000009000014
S32500005380000000000001000000000000000200000000000000020000000000000002000000
S325000053A00000000000040000000000000006000000000000000000000000000000020000DB
S325000053C00000000000030000000000000009000000000000000800000000000000060000AD
S325000053E0000000000008000000000000000600000000000000090000000000000007000089
S3250000540000000000000200000000000000060000000000000008000000000000000800006E
S3250000542000000000000900000000000000080000000000000008000000000000000100004C
S32500005440000000000006000000000000000800000000000000000000000000000004000034
S32500005460000000000008000000000000000400000000000000040000000000000002000014
S325000054800000000000090000000000000006000000000000000400000000000000050000EE
S325000054A00000000000050000000000000004000000000000000700000000000000000000D6
S325000054C00000000000050000000000000007000000000000000600000000000000040000B0
S325000054E0000000000003000000000000000500000000000000030000000000000007000094
S32500005500000000000003000000000000000200000000000000080000000000000003000075
S32500005520000000000000000000000000000800000000000000060000000000000006000051
S3250000554000000000000900000000000000070000000000000001000000000000000900002B
S32500005560000000000003000000000000000700000000000000010000000000000002000018
S325000055800000000000030000000000000005000000000000000700000000000000000000F6
S325000055A00000000000020000000000000006000000000000000000000000000000070000D6
S325000055C00000000000030000000000000007000000000000000100000000000000080000B2
S325000055E000000000000400000000000000070000000000000006000000000000000800008C
S32500005600000000000009000000000000000600000000000000030000000000000009000069
S32500005620000000000006000000000000000900000000000000070000000000000005000049
S32500005640000000000006000000000000000000000000000000050000000000000002000037
S3250000566000000000000700000000000000060000000000000006000000000000000300000E
S325000056800000000000020000000000000004000000000000000300000000000000060000F5
S325000056A00000000000000000000000000004000000000000000300000000000000060000D7
S325000056C00000000000030000000000000007000000000000000400000000000000090000AD
S325000056E0000000000004000000000000000200000000000000090000000000000003000092
S32500005700000000000008000000000000000200000000000000040000000000000005000070
S32500005720000000000004000000000000000300000000000000020000000000000002000058
S32500005740000000000004000000000000000700000000000000040000000000000001000033
S3250000576000000000000600000000000000010000000000000006000000000000000800000E
S325000057800000000000070000000000000000000000000000000400000000000000090000EF
S325000057A00000000000060000000000000009000000000000000500000000000000010000CE
S325000057C00000000000060000000000000000000000000000000200000000000000020000B9
S325000057E0000000000002000000000000000200000000000000070000000000000003000095
S3250000580000000000000600000000000000010000000000000000000000000000000000007B
S32500005820000000000007000000000000000200000000000000030000000000000001000055
S3250000584000000000000000000000000000070000000000000004000000000000000800002F
S32500005860000000000000000000000000000100000000000000080000000000000007000012
S325000058800000000000030000000000000004000000000000000700000000000000010000F3
S325000058A00000000000030000000000000004000000000000000400000000000000020000D5
S325000058C00000000000040000000000000006000000000000000400000000000000090000AB
S325000058E000000000000800000000000000040000000000000002000000000000000500008F
S3250000590000000000000700000000000000020000000000000007000000000000000400006D
S32500005920000000000004000000000000000000000000000000050000000000000006000052
S3250000594000000000000000000000000000000000000000000004000000000000000000003D
S32500005960000000000003000000000000000200000000000000000000000000000008000014
S325000059800000000000060000000000000009000000000000000900000000000000020000E7
S325000059A00000000000030000000000000005000000000000000400000000000000080000CD
S325000059C00000000000010000000000000000000000000000000700000000000000020000B7
S325000059E0000000000004000000000000000900000000000000090000000000000002000089
S32500005A0000000000000300000000000000060000000000000006000000000000000700006A
S32500005A20000000000007000000000000000400000000000000060000000000000009000046
S32500005A40000000000006000000000000000000000000000000090000000000000009000028
S32500005A60000000000005000000000000000100000000000000070000000000000003000010
S32500005A800000000000000000000000000008000000000000000500000000000000040000EF
S32500005AA00000000000030000000000000009000000000000000400000000000000060000CA
S32500005AC00000000000020000000000000003000000000000000800000000000000060000AD
S32500005AE0000000000002000000000000000700000000000000000000000000000007000090
S32500005B0000000000000600000000000000070000000000000004000000000000000300006B
S32500005B20000000000001000000000000000200000000000000040000000000000007000051
S32500005B4000000000000500000000000000050000000000000008000000000000000000002D
S32500005B60000000000007000000000000000700000000000000030000000000000007000007
S32500005B800000000000070000000000000009000000000000000300000000000000020000EA
S32500005BA00000000000000000000000000007000000000000000800000000000000020000CE
S32500005BC00000000000000000000000000007000000000000000100000000000000040000B3
S32500005BE0000000000006000000000000000100000000000000010000000000000002000095
S32500005C00000000000008000000000000000800000000000000070000000000000001000066
S32500005C20000000000000000000000000000100000000000000000000000000000007000056
S32500005C40000000000009000000000000000000000000000000070000000000000006000028
S32500005C60000000000009000000000000000300000000000000030000000000000006000009
S32500005C800000000000040000000000000009000000000000000800000000000000040000E5
S32500005CA00000000000060000000000000009000000000000000900000000000000070000BF
S32500005CC00000000000080000000000000000000000000000000100000000000000040000B1
S32500005CE0000000000003000000000000000500000000000000090000000000000004000089
S32500005D00000000000003000000000000000800000000000000050000000000000005000068
S32500005D2000000000000200000000000000080000000000000003000000000000000100004F
S32500005D4000000000000800000000000000020000000000000007000000000000000000002C
S32500005D6000000000000500000000000000020000000000000006000000000000000100000F
S32500005D800000000000010000000000000007000000000000000800000000000000080000E5
S32500005DA00000000000060000000000000007000000000000000700000000000000040000C5
S32500005DC00000000000090000000000000000000000000000000000000000000000020000B2
S32500005DE000000000000700000000000000010000000000000006000000000000000200008D
S32500005E0000000000000000000000000000040000000000000008000000000000000200006E
S32500005E20000000000002000000000000000300000000000000030000000000000002000052
S32500005E4000000000000700000000000000020000000000000004000000000000000500002A
S32500005E60000000000004000000000000000100000000000000060000000000000008000009
S32500005E800000000000000000000000000004000000000000000800000000000000080000E8
S32500005EA00000000000030000000000000005000000000000000200000000000000040000CE
S32500005EC00000000000070000000000000004000000000000000700000000000000050000A5
S32500005EE0000000000006000000000000000500000000000000070000000000000006000084
S32500005F00000000000009000000000000000700000000000000000000000000000003000068
S32500005F2000000000000200000000000000030000000000000008000000000000000000004E
S32500005F4000000000000500000000000000020000000000000005000000000000000100002E
S32500005F6000000000000500000000000000010000000000000001000000000000000500000F
S32500005F800000000000080000000000000009000000000000000300000000000000030000E4
S32500005FA00000000000060000000000000007000000000000000800000000000000060000C0
S32500005FC00000000000020000000000000005000000000000000100000000000000000000B3
S32500005FE0000000000000000000000000000000000000000000080000000000000002000091
S32500006000000000000008000000000000000800000000000000070000000000000000000063
S3250000602000000000000100000000000000050000000000000000000000000000000800004C
S3250000604000000000000000000000000000070000000000000001000000000000000500002D
S3250000606000000000000100000000000000030000000000000003000000000000000900000A
S325000060800000000000040000000000000008000000000000000200000000000000030000E9
S325000060A00000000000060000000000000000000000000000000900000000000000000000CB
S325000060C00000000000070000000000000000000000000000000200000000000000000000B1
S325000060E0000000000000000000000000000000000000000000040000000000000000000096
S32500006100000000000008000000000000000100000000000000010000000000000009000066
S3250000612000000000000900000000000000030000000000000009000000000000000900003B
S3250000614000000000000100000000000000020000000000000006000000000000000400002C
S32500006160000000000007000000000000000900000000000000030000000000000002000004
S325000061800000000000080000000000000007000000000000000500000000000000060000DF
S325000061A00000000000000000000000000004000000000000000600000000000000090000C6
S325000061C000000000000600000000000000080000000000000009000000000000000600009C
S325000061E000000000000800000000000000050000000000000009000000000000000800007B
S32500006200000000000007000000000000000000000000000000070000000000000008000062
S3250000622000000000000500000000000000080000000000000007000000000000000800003C
S32500006240000000000000000000000000000500000000000000020000000000000008000029
S32500006260000000000005000000000000000700000000000000020000000000000005000005
S325000062800000000000070000000000000009000000000000000100000000000000070000E0
S325000062A00000000000030000000000000009000000000000000600000000000000090000BD
S325000062C0000000000009000000000000000800000000000000070000000000000007000099
S325000062E0000000000003000000000000000600000000000000050000000000000002000088
S32500006300000000000008000000000000000400000000000000000000000000000006000065
S3250000632000000000000400000000000000090000000000000006000000000000000600003E
S32500006340000000000005000000000000000900000000000000060000000000000002000021
S325000063600000000000080000000000000008000000000000000700000000000000050000FB
S325000063800000000000070000000000000000000000000000000200000000000000020000EC
S325000063A00000000000090000000000000001000000000000000300000000000000080000C2
S325000063C00000000000010000000000000003000000000000000700000000000000060000A6
S325000063E0000000000001000000000000000400000000000000090000000000000002000087
S32500006400000000000000000000000000000100000000000000080000000000000006000067
S3250000642000000000000300000000000000040000000000000002000000000000000000004D
S32500006440000000000005000000000000000900000000000000040000000000000004000020
S325000064600000000000090000000000000001000000000000000900000000000000090000FA
S325000064800000000000030000000000000004000000000000000100000000000000020000EC
S325000064A00000000000050000000000000007000000000000000200000000000000060000C2
S325000064C00000000000000000000000000001000000000000000400000000000000010000B0
S325000064E0000000000005000000000000000300000000000000050000000000000007000082
S32500006500000000000007000000000000000300000000000000030000000000000002000066
S32500006520000000000000000000000000000700000000000000040000000000000007000043
